{
  "contractName": "register",
  "abi": [
    {
      "constant": false,
      "inputs": [
        {
          "internalType": "bytes32",
          "name": "_name",
          "type": "bytes32"
        },
        {
          "internalType": "bytes32",
          "name": "_email",
          "type": "bytes32"
        },
        {
          "internalType": "bytes32",
          "name": "_mobile",
          "type": "bytes32"
        },
        {
          "internalType": "bytes32",
          "name": "_password",
          "type": "bytes32"
        }
      ],
      "name": "addAccount",
      "outputs": [],
      "payable": false,
      "stateMutability": "nonpayable",
      "type": "function"
    },
    {
      "constant": true,
      "inputs": [],
      "name": "viewAccounts",
      "outputs": [
        {
          "internalType": "bytes32[]",
          "name": "",
          "type": "bytes32[]"
        },
        {
          "internalType": "bytes32[]",
          "name": "",
          "type": "bytes32[]"
        },
        {
          "internalType": "bytes32[]",
          "name": "",
          "type": "bytes32[]"
        },
        {
          "internalType": "bytes32[]",
          "name": "",
          "type": "bytes32[]"
        }
      ],
      "payable": false,
      "stateMutability": "view",
      "type": "function"
    },
    {
      "constant": true,
      "inputs": [
        {
          "internalType": "bytes32",
          "name": "_mobile",
          "type": "bytes32"
        },
        {
          "internalType": "bytes32",
          "name": "_password",
          "type": "bytes32"
        }
      ],
      "name": "loginAccount",
      "outputs": [
        {
          "internalType": "bool",
          "name": "",
          "type": "bool"
        }
      ],
      "payable": false,
      "stateMutability": "view",
      "type": "function"
    }
  ],
  "bytecode": "0x608060405234801561001057600080fd5b50610625806100206000396000f3fe608060405234801561001057600080fd5b50600436106100415760003560e01c806308e6085a14610046578063151f90411461017d578063f229ee7b146101c9575b600080fd5b61004e610219565b6040518080602001806020018060200180602001858103855289818151815260200191508051906020019060200280838360005b8381101561009d578082015181840152602081019050610082565b50505050905001858103845288818151815260200191508051906020019060200280838360005b838110156100df5780820151818401526020810190506100c4565b50505050905001858103835287818151815260200191508051906020019060200280838360005b83811015610121578082015181840152602081019050610106565b50505050905001858103825286818151815260200191508051906020019060200280838360005b83811015610163578082015181840152602081019050610148565b505050509050019850505050505050505060405180910390f35b6101c76004803603608081101561019357600080fd5b810190808035906020019092919080359060200190929190803590602001909291908035906020019092919050505061037d565b005b6101ff600480360360408110156101df57600080fd5b8101908080359060200190929190803590602001909291905050506104e2565b604051808215151515815260200191505060405180910390f35b60608060608060006001600260038380548060200260200160405190810160405280929190818152602001828054801561027257602002820191906000526020600020905b81548152602001906001019080831161025e575b50505050509350828054806020026020016040519081016040528092919081815260200182805480156102c457602002820191906000526020600020905b8154815260200190600101908083116102b0575b505050505092508180548060200260200160405190810160405280929190818152602001828054801561031657602002820191906000526020600020905b815481526020019060010190808311610302575b505050505091508080548060200260200160405190810160405280929190818152602001828054801561036857602002820191906000526020600020905b815481526020019060010190808311610354575b50505050509050935093509350935090919293565b600460003373ffffffffffffffffffffffffffffffffffffffff1673ffffffffffffffffffffffffffffffffffffffff16815260200190815260200160002060009054906101000a900460ff16156103d457600080fd5b6001600460003373ffffffffffffffffffffffffffffffffffffffff1673ffffffffffffffffffffffffffffffffffffffff16815260200190815260200160002060006101000a81548160ff021916908315150217905550600084908060018154018082558091505090600182039060005260206000200160009091929091909150555060018390806001815401808255809150509060018203906000526020600020016000909192909190915055506002829080600181540180825580915050906001820390600052602060002001600090919290919091505550600381908060018154018082558091505090600182039060005260206000200160009091929091909150555050505050565b6000806000809050600460003373ffffffffffffffffffffffffffffffffffffffff1673ffffffffffffffffffffffffffffffffffffffff16815260200190815260200160002060009054906101000a900460ff1661054057600080fd5b600060038054905011156105e757600091505b60038054905082101561059057836003838154811061056e57fe5b90600052602060002001541415610583578190505b8180600101925050610553565b836003828154811061059e57fe5b90600052602060002001541480156105cc575084600282815481106105bf57fe5b9060005260206000200154145b156105dc576001925050506105ea565b6000925050506105ea565b50505b9291505056fea265627a7a7231582006cf025bd8689bb7825878c9b96348dff3a938f93c055455ecd29b3d35fe21e664736f6c63430005100032",
  "source": "pragma solidity 0.5.16;\n\n\ncontract register {\n\tbytes32[] internal name;\n\tbytes32[] internal email;\n\tbytes32[] internal mobile;\n\tbytes32[] internal password;\n\tmapping(address => bool) internal users;\n\t\t\n\tfunction addAccount(bytes32 _name, bytes32 _email, bytes32 _mobile, bytes32 _password) public {\n\n\t\trequire(!users[msg.sender]);\n\t\t\n\t\tusers[msg.sender]=true;\n\t\tname.push((_name));\n\t\temail.push((_email));\n\t\tmobile.push((_mobile));\n\t\tpassword.push((_password));\t\n\t}\n\t\n\tfunction viewAccounts() public view returns(bytes32[] memory, bytes32[] memory, bytes32[] memory, bytes32[] memory) {\n\t\treturn(name,email,mobile,password);\n\t}\n\n\tfunction loginAccount(bytes32 _mobile, bytes32 _password) public view returns(bool){\n\t\t\n\t\tuint i;\n\t\tuint j=0;\n\n\t\trequire(users[msg.sender]);\n\n\t\tif(password.length>0) {\n\t\t\tfor(i=0;i<password.length;i++) {\n\t\t\t\tif((password[i])==(_password)) {\n\t\t\t\t\tj=i;\n\t\t\t\t}\n\t\t\t}\n\t\t\n\t\t\n\t\t\tif(password[j]==_password && mobile[j]==_mobile) {\n\t\t\t\treturn true;\n\t\t\t}\n\t\t\telse {\n\t\t\t\treturn false;\n\t\t\t}\n\t\t}\n\t}\n}\n",
  "sourcePath": "/home/mad/bc-bootcamp/reg-dapp/contracts/register.sol",
  "compiler": {
    "name": "solc",
    "version": "0.5.16+commit.9c3226ce.Emscripten.clang"
  },
  "schemaVersion": "3.3.1",
  "updatedAt": "2020-10-22T09:16:14.585Z",
  "networkType": "ethereum",
  "devdoc": {
    "methods": {}
  },
  "userdoc": {
    "methods": {}
  }
}